:100000000C9451010C9482010C9482010C94820195
:100010000C9482010C9482010C9482010C94820154
:100020000C9482010C9482010C9482010C94820144
:100030000C9482010C9482010C9482010C94820134
:100040000C9482010C9482010C9482010C94820124
:100050000C9482010C9482010C9482010C94F51B87
:100060000C9482010C940C1F0C94421F0C9482017E
:100070000C9482010C9482010C9482010C948201F4
:100080000C9482010C9482010C9482010C948201E4
:100090000C9482010C9482010C9482010C9420082F
:1000A0000C9482010C9482010C9482010C948201C4
:1000B0000C9482010C9482010C9482010C948201B4
:1000C0000C9482010C9482010C9482010C948201A4
:1000D0000C9482010C9482010C9482010C94820194
:1000E0000C9482010C9482010C9482010C943102D4
:1000F0000C945F020C9482010C9482010C94070210
:100100000C9482010C9482010C9482010C94820163
:100110000C9482010C9482010C9482010C94820153
:100120000C9482010C9482010C9482010C94820143
:100130000C948201291D2C1D1B1D1F1D251D631DD7
:10014000301D341D3A1D3E1D421D481D4C1D501DC5
:10015000631D561D5A1D5E1D0C946C1F0C944C1D86
:100160000C943E1E0C9407200C94421D0C94B9096B
:100170000C9426060C9456060C949D090C94601E53
:100180000C9428070C94251D0C945E1D0C94D01D16
:100190000C9402060C942C1D0C943B170C94740ABE
:1001A0000C94D8090C94341D0C94761F0C943E1DAD
:1001B0000C94291D0C9425060C9414030C94501DCA
:1001C0000C94481D0C94A31F0C941F1D0C943A1DF5
:1001D0000C94DC1D0C94EA1D0C941D100C941B1D3A
:1001E0000C94E2090C9416060C94561D0C94FE1DFA
:1001F0000C94631D0C94301D0C94FA050C946F0C38
:100200000C9487090C945A1D0C940A037C3C3E5EA6
:100210002B3D3F2F5B5D3B2C2A225C0000000A0B2C
:1002200002090000000001030407000000000000B4
:100230000000000000000000000001021020200863
:10024000044080108020401020400804080402016F
:1002500002010401800102080505050507050505E1
:10026000050402020202040404040202040402025D
:1002700007070406060600000000250000002B000A
:100280002E003100340000000000240000002A008D
:100290002D00300033000A0328076F0C1D10761F55
:1002A000140311241FBECFEFD1E8DEBFCDBF00E0A5
:1002B0000CBF12E0A0E0B2E0ECE7FAE400E00BBF14
:1002C00002C007900D92A037B107D9F726E0A0E74A
:1002D000B2E001C01D92A03EB207E1F711E0C0E517
:1002E000D1E000E006C021970109802FFE010E94A5
:1002F0006222CB34D10780E00807A9F70E941C22B4
:100300000C942C250C940000E9E9F2E0119283E0B2
:10031000E931F807D9F710921B0310921A031092D3
:1003200019031092180361E085E00E94641D61E0EA
:1003300085E00E94A01D61E082E00E94641D61E0F2
:1003400082E00E94A01D8091390181608093390173
:1003500010924E0180914201807E8860809342011C
:1003600061E070E080E090E00E94701C80914101AB
:100370008F718830B1F48091440180628093440190
:100380008CE480934E0180914801807E8A61809345
:10039000480180914201807E86608093420181E025
:1003A000089580E008958091180390911903209199
:1003B0001A0330911B0381589F4F821B930B6FE7E9
:1003C00070E00E942C2208952091180330911903A7
:1003D00080911A0390911B0328173907B1F0E0911F
:1003E0001A03F0911B03E756FD4F208180911A03F9
:1003F00090911B0301966FE770E00E942C2290936E
:100400001B0380931A03822F08958FEF08951F9284
:100410000F920FB60F9211240BB60F922F933F93AA
:100420004F935F936F937F938F939F93AF93BF93FC
:10043000EF93FF9361E082E00E94A01DFF91EF9196
:10044000BF91AF919F918F917F916F915F914F91EC
:100450003F912F910F900BBE0F900FBE0F901F90EA
:1004600018951F920F920FB60F9211240BB60F9290
:100470002F933F934F935F936F937F938F939F93AC
:10048000AF93BF93EF93FF9360E085E00E94A01DC0
:100490008091460180931C03FF91EF91BF91AF9132
:1004A0009F918F917F916F915F914F913F912F918C
:1004B0000F900BBE0F900FBE0F901F9018951F92BC
:1004C0000F920FB60F9211240BB60F92EF92FF927C
:1004D0000F931F932F933F934F935F936F937F934C
:1004E0008F939F93AF93BF93EF93FF93CF93DF933C
:1004F000CDB7DEB7CF57D109DEBFCDBF80911C038A
:10050000877021F561E085E00E94A01DC158DF4F92
:100510000FB6F894DEBF0FBECDBFDF91CF91FF9134
:10052000EF91BF91AF919F918F917F916F915F916B
:100530004F913F912F911F910F91FF90EF900F904E
:100540000BBE0F900FBE0F901F90189500917B016E
:1005500010E0CE0101967C01A80160E871E00E94E4
:10056000B024809118039091190301966FE770E011
:100570000E942C22F701025011092FE730E0409130
:100580001A0350911B038417950709F4BBCFAF01E1
:100590004E195F094017510708F0B4CFA091180316
:1005A000B09119034191A756BD4F4C9390931903F5
:1005B000809318030196B9010E942C22E0CF982F56
:1005C00092959F708F702AE0929F800D112408955C
:1005D00026E040E056E960E070E08FE396E00E949C
:1005E000A71E8DE193E00E9495068AE10E94840196
:1005F00088EF8093560168EC70E08BE892E00E94EF
:10060000392061E08AE00E94641D6FE081EE93E092
:100610000C94DC0A61E672E08BE892E00E9476209E
:1006200080E792E00C94410A8BE892E00C94082059
:100630006F927F928F929F92AF92BF92CF92DF92F2
:10064000EF92FF920F931F93CF93DF934C015B01C7
:10065000EA01390168E670E08DE193E00E94A906A5
:1006600060E08DE193E00E9456068DE193E00E94E8
:10067000250747E050E068E670E08DE193E00E94D6
:1006800022078DE193E00E9402068F770E94DF022D
:10069000F40180838DE193E00E9402060E94DF0254
:1006A000F50180838DE193E00E9402068F730E9422
:1006B000DF0288838DE193E00E9402060E94DF0240
:1006C000F30180838DE193E00E9402060E94DF0225
:1006D000F80180838DE193E00E9402060E94DF0210
:1006E000F70180838DE193E00E9402060E94DF0201
:1006F000F6018083DF91CF911F910F91FF90EF90D2
:10070000DF90CF90BF90AF909F908F907F906F9031
:100710000895AF92BF92CF92DF92EF92FF920F9324
:100720001F93CF93DF93CDB7DEB72C970FB6F89416
:10073000DEBF0FBECDBF5C0182E9C82E82E0D82E9D
:1007400093E9E92E92E0F92E04E912E025E932E07E
:1007500046E952E067E972E088E992E00E941803F6
:1007600061E672E0C5010E947620609194024AE041
:10077000CE0101966A30D8F40E940B21B501CE015A
:1007800007960E94DF206AE072E0CE0107960E9481
:100790008D21BE016F5F7F4F0E947A21BC01C50190
:1007A0000E94C820CE0107960E94082008C00E941F
:1007B0000B21BE016F5F7F4FC5010E94E820CE0173
:1007C00001960E940820609193024AE0CE010196B2
:1007D0006A3088F40E940B21B501CE0107960E9471
:1007E000DF206FE2CE0107960E94A6216AE072E048
:1007F0000E948D210CC00E940B21B501CE010796ED
:100800000E94DF206FE2CE0107960E94A621BE0162
:100810006F5F7F4F0E947A21BC01C5010E94C820F2
:10082000CE0107960E940820CE0101960E94082062
:100830004AE060919202CE0101960E940B21B5011F
:10084000CE0107960E94DF206FE2CE0107960E943C
:10085000A621BE016F5F7F4F0E947A21BC01C501B6
:100860000E94C820CE0107960E940820CE01019662
:100870000E940820B501CE0101960E94DF206CE0A5
:1008800072E0CE0101960E948D21BC01C5010E943B
:10089000C820CE0101960E940820609196024AE08D
:1008A000CE016A30F0F401960E940B21B501CE0111
:1008B00007960E94DF206AE072E0CE0107960E9450
:1008C0008D21BE016F5F7F4F0E947A21BC01C5015F
:1008D0000E94C820CE0107960E940820CE010196F2
:1008E00019C007960E940B21B501CE0101960E9406
:1008F000DF20BE01695F7F4FCE0101960E947A2101
:10090000BC01C5010E94C820CE0101960E940820AA
:10091000CE0107960E940820609197024AE0CE011E
:1009200001966A3088F40E940B21B501CE0107962A
:100930000E94DF206AE3CE0107960E94A6216AE0AA
:1009400072E00E948D210CC00E940B21B501CE01E6
:1009500007960E94DF206AE3CE0107960E94A62137
:10096000BE016F5F7F4F0E947A21BC01C5010E94CA
:10097000C820CE0107960E940820CE0101960E9451
:100980000820609198024AE0CE0101966A3088F40E
:100990000E940B21B501CE0107960E94DF206AE379
:1009A000CE0107960E94A6216AE072E00E948D2186
:1009B0000CC00E940B21B501CE0107960E94DF20DA
:1009C0006AE3CE0107960E94A621BE016F5F7F4FAA
:1009D0000E947A21BC01C5010E94C820CE01079661
:1009E0000E940820CE0101960E940820C5012C9685
:1009F0000FB6F894DEBF0FBECDBFDF91CF911F9130
:100A00000F91FF90EF90DF90CF90BF90AF9008953F
:100A10001F93CF93DF93CDB7DEB7AE970FB6F894A1
:100A2000DEBF0FBECDBF0E94D301892B09F4C7C022
:100A30000E94E401682F80939102082E000C990B0C
:100A40006EA70E949C246EA5892B21F08BE892E072
:100A50000E94662111E0809191028F3F09F010E021
:100A60006EE072E0CE0101960E947620BE016F5FBB
:100A70007F4F8BE892E00E94D1219095991F992792
:100A8000991F1923CE0101960E940820112359F2C3
:100A90004AE060911C03CE0101960E940B21209137
:100AA0008F023091900242E050E06BE872E0CE019C
:100AB0004C960E94D521CE0188960E948903BE01E2
:100AC000685D7F4FCE0182960E94DF206CE072E06D
:100AD000CE0182960E948D21BE01645E7F4F0E94EE
:100AE0007A2162E172E00E948D21BE016F5F7F4F2B
:100AF0000E947A216AE172E00E948D21BC018BE89C
:100B000092E00E94C820CE0182960E940820CE0169
:100B100088960E940820CE014C960E940820CE01A3
:100B200001960E94082023E14CE152E061EE73E05F
:100B3000CE0101960E94E50B8B819C8190937302FC
:100B4000809372028D819E81AF81B88580937402FB
:100B500090937502A0937602B093770289859A8567
:100B6000AB85BC858093780290937902A0937A023A
:100B7000B0937B028DE0FE013D96ACE7B2E00190C0
:100B80000D928A95E1F78A8D9B8D90938A028093CE
:100B9000890280E792E00E94B50A882361F06BE841
:100BA00072E080E792E00E94F51F61E672E08BE858
:100BB00092E00E94F42080E792E00E94A30A83B7AB
:100BC000817F846083BF83B7816083BF83B7816087
:100BD00083BF889583B78E7F83BF83B78E7F83BFA4
:100BE000AE960FB6F894DEBF0FBECDBFDF91CF91AA
:100BF0001F91089580914D0390E020914E03821B38
:100C00009109089590914E0380914D03981750F4E7
:100C1000E92FF0E0E15BFC4F208130E09F5F909393
:100C20004E0302C02FEF3FEFC9010895E0914E033C
:100C300080914D03E81730F4F0E0E15BFC4F8081D8
:100C400090E008958FEF9FEF08950895CF92DF927F
:100C5000EF92FF920F931F93CF93DF937C01262F88
:100C6000972F8A0180912903882391F0C62FD72FCF
:100C70006E01C40ED51ECC15DD0571F06991D7014A
:100C8000ED91FC910190F081E02DC7011995F3CF12
:100C9000642F822F0E94E807C801DF91CF911F9136
:100CA0000F91FF90EF90DF90CF900895CF93DF9357
:100CB0001F92CDB7DEB76983209129032223D1F09B
:100CC00020912A03203240F021E030E0FC01338300
:100CD000228380E090E015C080912B03E82FF0E0A4
:100CE000E45DFC4F998190838F5F80932B03809309
:100CF0002A0305C061E0CE0101960E94E80781E069
:100D000090E00F90DF91CF910895FC011382128241
:100D100088EE93E0A0E0B0E084839583A683B78358
:100D200089E292E091838083089510924E0310929D
:100D30004D0310922B0310922A030C942C0781E090
:100D40008093290360934C0310922B0310922A0383
:100D500008950C949F060F93062F21E040912A03DB
:100D60006CE273E080914C030E94920710922B0377
:100D700010922A03109229030F9108954F925F92C7
:100D80006F927F92AF92BF92CF92EF92FF920F93AA
:100D90001F93CF93DF935C01F62ED42F28013901E6
:100DA000EE2021F10E949F06CE2DC43008F0C3E052
:100DB000C150C0F0D501ED91FC91B8E0CB9FC001CE
:100DC0001124A301920104C05695479537952795A4
:100DD0008A95D2F7CA01B9010190F081E02DC501D1
:100DE0001995E6CF60E0C5010E94AB064D2FD132C8
:100DF00008F040E22C2D6FE473E08F2D0E944A072B
:100E000010924E0380934D03DF91CF911F910F916C
:100E1000FF90EF90CF90BF90AF907F906F905F90DA
:100E20004F900895CF92EF920F931F93C22EE12C13
:100E300000E010E098010E94BE061F910F91EF9014
:100E4000CF90089521E00C94120761E00C94AB065A
:100E50008DE193E00C9485061092DC0381E0809391
:100E6000DA031092D90361E084E10E94A01D61E0E1
:100E700085E10E94A01DE9EBF0E080818E7F8083F8
:100E800080818D7F808388E48093B80085E480939F
:100E9000BC000895413208F043C09091DC039111E9
:100EA000FCCF91E09093DC032093DA032FEF2093A3
:100EB0006F031092B403240F2093B3039093DB03CA
:100EC0009091DB03880F892B8093DB038091D903FA
:100ED000813061F41092D9038091DB038093BB00D1
:100EE0008091BC0083FDF8CF85EC01C085EE809336
:100EF000BC008091DC038130E1F38091B40384175E
:100F000010F44091B40325EB33E0FB01D9018A2FA3
:100F1000821B841718F48D918193F9CF842F089543
:100F200080E008950F93413208F04AC09091DC03AD
:100F30009111FCCF32E03093DC030093DA033FEFF2
:100F400030936F031092B4034093B303FB0165EB3E
:100F500073E0DB013A2F361B341718F431913D93BF
:100F6000F9CF1092DB033091DB03880F832B809342
:100F7000DB038091D903813061F41092D903809111
:100F8000DB038093BB008091BC0083FDF8CF85EC30
:100F900001C085EE8093BC00222321F08091DC0308
:100FA0008230D1F380916F038F3F79F080916F038E
:100FB000803241F080916F03803331F094E005C0BE
:100FC00091E003C092E001C093E0892F0F91089552
:100FD00040919103262F30E0240F311D213231053D
:100FE000DCF42091DC032430C9F4FC0180E090E0C3
:100FF000861758F4309191032191DC01AD56BC4F16
:10100000A30FB11D2C930196F3CF80919103680F2C
:101010006093910380E0089581E0089582E008954F
:1010200085ED8093BC008091BC0084FDFCCF1092C4
:10103000DC03089585EC8093BC001092DC030895D6
:101040001F920F920FB60F9211240BB60F922F938F
:101050003F934F935F936F937F938F939F93AF9340
:10106000BF93EF93FF938091B900887F803609F496
:101070009EC078F5883209F45DC090F4803109F49F
:1010800056C038F4882309F4F5C0883009F44FC0FD
:10109000F5C0883109F44EC0803209F45FC0EEC05B
:1010A000803409F46AC058F4803309F457C0883397
:1010B00009F0E4C080936F030E941A08DFC08035F6
:1010C00009F44FC0883509F45DC0883409F0D6C0F2
:1010D000D3C0883909F4C4C0A8F4883709F467C0BC
:1010E00038F4883609F463C0803709F460C0C6C09C
:1010F000883809F4B5C0803909F45FC0803809F038
:10110000BDC05BC0803B09F483C038F4803A09F469
:1011100066C0883A09F47CC0B1C0803C09F4A4C020
:10112000883C09F4A1C0883B09F487C0A7C080911E
:10113000DB0310C09091B4038091B303981770F54E
:10114000E091B40381E08E0F8093B403F0E0EB54A0
:10115000FC4F80818093BB0085EC83C080936F033C
:101160008BC0E091B40381E08E0F8093B403809133
:10117000BB00F0E0EB54FC4F80839091B40380916E
:10118000B3036BC0E091B40381E08E0F8093B4038E
:101190008091BB00F0E0EB54FC4F80838091DA0338
:1011A00081116AC081E08093D90384EA5EC083E044
:1011B0008093DC0310927003CFCF80917003803254
:1011C00008F04EC0E091700381E08E0F80937003B1
:1011D0008091BB00F0E0EF58FC4F8083BDCF0E94B0
:1011E0001A0880917003803230F4E0917003F0E0CF
:1011F000EF58FC4F10826091700370E0E091D503CE
:10120000F091D60381E793E019951092700336C0F0
:1012100084E08093DC031092920310929103E0919A
:10122000D703F091D803199580919103811105C0DE
:1012300081E08093910310929303E091920381E007
:101240008E0F80939203F0E0ED56FC4F80818093E7
:10125000BB009091920380919103981708F47CCF82
:1012600085E88093BC000AC085EC8093BC00109296
:10127000DC0304C010926F030E941008FF91EF91ED
:10128000BF91AF919F918F917F916F915F914F919E
:101290003F912F910F900BBE0F900FBE0F901F909C
:1012A0001895CF93CFB7F8948091E003811127C0B0
:1012B000E9E5F2E08491EBE3F2E09491E82FF0E0CD
:1012C000EE0FFF1FEA57FD4FA591B491EC91E92372
:1012D00021F461E081E00E94A01D61E081E00E94B4
:1012E000641D8CB580618CBD8CB580648CBD61E063
:1012F00086E10E94641D61E083E10E94641D80918B
:10130000E0038F5F8093E003CFBFCF910895CF9329
:10131000DF931F92CDB7DEB76983DC01ED91FC91BD
:101320000280F381E02D41E050E0BE016F5F7F4F0E
:1013300019950F90DF91CF910895CF93DF93EC0132
:10134000898D9A8D009739F481E090E09B838A83A0
:1013500080E090E00BC0FC01138212820E949A157B
:10136000E98DFA8D22813381232B71F7DF91CF91A3
:101370000895FC01818D928D009711F00C9431132A
:101380000895CF93DF931F92CDB7DEB741E050E0D1
:10139000BE016F5F7F4F0E944D11019719F4898143
:1013A00090E002C08FEF9FEF0F90DF91CF910895F3
:1013B000FC01818D928D009711F00C94C1098FEF83
:1013C0009FEF08950F931F93CF93DF93FC01818DBF
:1013D000928D0097B9F0EF010E94C1098C010F3F77
:1013E0008FEF180791F0898D9A8DFC014285538506
:1013F0006485758541505109610971090E949B12EC
:10140000C80105C080E090E002C08FEF9FEFDF9140
:10141000CF911F910F910895EF92FF920F931F9319
:10142000CF93DF93EC017B018A011B821A8288EE45
:1014300093E0A0E0B0E08C839D83AE83BF8389E31B
:1014400092E0998388838DE190E00E9484229A8FB4
:10145000898F009779F02DE1F701DC0101900D9261
:101460002A95E1F74CE050E0B801CE010C960E94BD
:10147000CB24188EDF91CF911F910F91FF90EF90A9
:101480000895FC011382128288EE93E0A0E0B0E0A0
:1014900084839583A683B78389E392E091838083D5
:1014A000128E118E14860895DC015996ED91FC91EF
:1014B0005A97309729F062857385848595850895BC
:1014C0006FEF7FEFCB010895DC015996ED91FC9110
:1014D0005A97309729F06389748985899689089588
:1014E00060E070E0CB010895CF92DF92EF92FF921F
:1014F000CF93DF93FC01218D328D232BD9F0EC01AA
:101500000E94640A6B017C01CE010E94540AA7016B
:101510009601261B370B480B590BDA01C9018115BF
:1015200030E89307A105B10538F08FEF9FE7A0E001
:10153000B0E002C080E090E0DF91CF91FF90EF90AB
:10154000DF90CF900895CF93DF93EC01898D9A8D32
:10155000009741F00E947813898D9A8D0E9419237B
:101560001A8E198EDF91CF910895DC015996ED9175
:10157000FC915A97309721F081E09581911101C03B
:1015800080E008950F931F93CF93DF93EC018B01BD
:1015900041E00E94DE1A811109C040E0B801CE018D
:1015A000DF91CF911F910F910C94DE1A81E0DF91B2
:1015B000CF911F910F9108950F931F93CF93DF93B6
:1015C000EC01462F61E00E94F60D882389F08E0120
:1015D000045F1F4FBE01C8010E94C20A882341F068
:1015E000B801CE018A960E94FC1091E0811101C0E1
:1015F00090E0892FDF91CF911F910F910895FC0109
:10160000DB0112968D919C911397938382838BE4D7
:1016100092E09183808314968C911497848315961D
:101620008C911597858316964D915D916D917C9166
:10163000199746835783608771871A964D915D91FC
:101640006D917C911D9742875387648775871E969D
:101650004D915D916D917C91519746875787608B35
:10166000718B52968C915297828B53964D915D91CE
:101670006D917C915697438B548B658B768B5796E7
:101680004D915D916D917C915A97478B508F618FF1
:10169000728F5B968D919C915C97948F838F089548
:1016A0004F925F926F927F928F929F92AF92BF9272
:1016B000CF92DF92EF92FF920F931F93CF93DF931E
:1016C000CDB7DEB7C754D1090FB6F894DEBF0FBE51
:1016D000CDBF6C015A014901665D7F4F7E018EE1ED
:1016E000E80EF11CC7010E94FF0A1C821B828BE4DA
:1016F00092E09A8389831E828501FE0131963F0123
:1017000027016FE270E0C8010E94B9240097D9F167
:10171000F80120812F3219F40F5F1F4FF2CF801B89
:101720008D3008F08CE0E82EF12CA701B801CE0135
:10173000CB960E94CB24EBE3F0E0EC0FFD1FEE0D07
:10174000FF1D1082C3010E94781321E0AE01455CA9
:101750005F4FB201C3010E94AC14811109C0F601B0
:10176000138212828BE492E091838083158214C0ED
:101770000E0D1F1DC2010E947813942D852D23018B
:10178000692E782EBECF0A191B09F401118300833C
:10179000B201C6010E94FF0AC601C95BDF4F0FB646
:1017A000F894DEBF0FBECDBFDF91CF911F910F9197
:1017B000FF90EF90DF90CF90BF90AF909F908F9071
:1017C0007F906F905F904F900895AF92BF92CF92AD
:1017D000DF92FF920F931F93CF93DF93CDB7DEB7C6
:1017E000C955D1090FB6F894DEBF0FBECDBF6C014D
:1017F0005B018A01F22E9E01285A3F4FCE01CB9603
:101800000E94500B6A968EAD9FAD6A97080F191F04
:10181000F801808181110AC0BE01655C7F4FCE0155
:1018200001960E94FF0A45E452E041C019A218A2A5
:101830008BE492E09F8F8E8F1BA221968FAD219714
:10184000811104C0C6010E94410A37C08250823013
:1018500060F4B501665D7F4F2F2DA801CE014E9635
:101860000E94AC14811110C0EDCF2F2DA801BE0134
:10187000655C7F4FCE014E960E94AC14882311F315
:10188000CE01CB960E9478139F2D967041F049A906
:101890005AA96BA97CA9CE014E960E949B12BE014B
:1018A000625E7F4FCE0101960E94FF0AA801BE0131
:1018B0006F5F7F4FC6010E940C0AC601C75ADF4FF7
:1018C0000FB6F894DEBF0FBECDBFDF91CF911F9151
:1018D0000F91FF90DF90CF90BF90AF900895E1EE11
:1018E000F3E0158216821186138682E090E0A0E074
:1018F000B0E084879587A687B78713A215A614A69C
:101900008BE492E093A782A717A608950F93FC019A
:1019100030E080E092E1AAE7B0E0481759076A0793
:101920007B0740F4B695A795979587953F5F36302E
:10193000A1F737E091E09327222311F020E501C0C1
:1019400020E7892F86950C70082B022B008391705D
:1019500091830F9108952091DF03222399F04FB7CF
:10196000F8942091DF03213059F42DB32093DD0347
:101970003DB32091DE03209523232DBB4FBF02C032
:101980004093DD038CBD9DBD08958EBD00000DB458
:1019900007FEFDCF8EB508958FEF0C94C50C809196
:1019A000DF03882361F09FB7F8942091DF038091D3
:1019B000DD03213019F48DBB9FBF08958FBF0895BB
:1019C00061E0FC0184810E94A01D80912A0488238B
:1019D00021F010922A040C94CF0C0895CF93DF933A
:1019E000EC0180912A04811109C081E080932A04CE
:1019F00080912B0490912C040E94AB0C60E08C81B0
:101A0000DF91CF910C94A01DCF93DF93EC018E81D9
:101A1000882389F08F8198859C012F5F3F4F3887FD
:101A20002F838230924018F40E94CC0CF3CFCE0169
:101A30000E94E00C1E82DF91CF9108950F93CF9307
:101A4000DF931F921F92CDB7DEB7673028F026E1F3
:101A5000FC01258380E047C06230F9F058F466232A
:101A6000A9F0613079F500E021E040E059E06DE354
:101A700070E02EC06430F9F0B8F0653019F500E080
:101A800021E040E950ED63E070E022C000E021E099
:101A900040E458E76DE771E01BC000E021E040E85A
:101AA00054E86EE170E014C000E021E040E452E44C
:101AB0006FE070E00DC000E021E040E251EA67E035
:101AC00070E006C000E021E048E458EE61E070E01C
:101AD000CE0101960E94860C89819A8190932C04F4
:101AE00080932B0481E00F900F90DF91CF910F91A5
:101AF00008950F931F93CF93DF93EB010E943F1C38
:101B00008B010E94CC0C8F3F49F00E943F1C601B50
:101B1000710B6C177D07A8F380E001C081E0DF91B5
:101B2000CF911F910F910895CF92DF92FF920F9363
:101B30001F93CF93DF9300D01F92CDB7DEB76C0118
:101B4000F62E29833A834B835C830E94040DC601E1
:101B50000E94EE0C6CE271E0C6010E94790D8F2D9F
:101B600080640E94C50C08E110E05C814B813A81E1
:101B70002981DA01C901002E04C0B695A795979571
:101B800087950A94D2F729833A834B835C830E941A
:101B9000C50C0850110929813A814B815C81083FAD
:101BA0008FEF180731F7FF2029F0E8E0FE1204C09C
:101BB00087E803C085E901C08FEF0E94C50C10E0E3
:101BC0000E94CC0CF601828787FF04C01F3F11F0F2
:101BD0001F5FF6CF0F900F900F900F90DF91CF9176
:101BE0001F910F91FF90DF90CF9008957F928F9279
:101BF0009F92AF92BF92CF92DF92EF92FF920F939C
:101C00001F93CF93DF931F921F92CDB7DEB77C0156
:101C1000762EFC01138611861682158244830E945B
:101C20003F1C6B0161E0F70184810E94641D61E04B
:101C3000F70184810E94A01D0E94510900E021E06B
:101C400040E950ED63E070E0CE0101960E94860C01
:101C500089819A8190932C0480932B040E94AB0C71
:101C60001AE08FEF0E94C50C1150D9F70E94CF0CDB
:101C7000C7010E94EE0C20E030E0A90160E0C7013E
:101C80000E94940D082FF7018287813049F00E944D
:101C90003F1C6C197D09613D774068F381E04FC0BE
:101CA0002AEA31E040E050E068E0C7010E94940D6C
:101CB00082FF03C0F70103870EC004E00E94CC0C32
:101CC000F70182870150D1F78A3A11F082E038C0DB
:101CD00082E0F7018387F7018385823021F0812C30
:101CE000912C540105C0812C912CA12C80E4B82E9C
:101CF00020E030E0A90167E3C7010E94940DA5012F
:101D0000940169E2C7010E94940DF701828788233C
:101D100049F00E943F1C6C197D09613D774040F3FA
:101D200088E00DC083858230F1F420E030E0A90125
:101D30006AE3C7010E94940D882339F086E0F70119
:101D40008583C7010E94E00C16C00E94CC0C807CE9
:101D5000803C19F483E0F70183870E94CC0C0E9439
:101D6000CC0C0E94CC0CC7010E94E00C672DC7016F
:101D70000E941E0D182F812F0F900F90DF91CF9191
:101D80001F910F91FF90EF90DF90CF90BF90AF9099
:101D90009F908F907F9008950F931F93CF93DF9321
:101DA000EC010E943F1C8B010E94CC0C8A878F3F64
:101DB00049F40E943F1C601B710B6D327140A0F30F
:101DC0008FE003C08E3F39F08DE08D83CE010E94FD
:101DD000E00C80E001C081E0DF91CF911F910F9175
:101DE0000895CF92DF92EF92FF920F931F93CF93BC
:101DF000DF93EC016901C801820F931F813092408B
:101E000008F05CC08E81882371F088819981AA8155
:101E1000BB81481759076A077B0729F48F8198858A
:101E2000C816D90610F5488359836A837B838B854E
:101E3000833039F089E0440F551F661F771F8A955C
:101E4000D1F79A01AB0161E1CE010E94940D882384
:101E500019F083E08D8332C0CE010E94CC0E88231E
:101E600069F118861F8281E08E838F8198858C1599
:101E70009D0540F40E94CC0C8F819885019698872F
:101E80008F83F3CF6701E00EF11ECE14DF0431F033
:101E90000E94CC0CF60181936F01F7CF8F8198855A
:101EA000080F191F18870F838985882319F00115DA
:101EB000124048F0CE010E94040D05C0CE010E94E0
:101EC000E00C80E001C081E0DF91CF911F910F9184
:101ED000FF90EF90DF90CF900895EF92FF920F93D5
:101EE0001F930115110519F00E94F10E01C081E048
:101EF0001F910F91FF90EF900895EF92FF920F9333
:101F00001F93790100E012E020E030E00E94F10E22
:101F10001F910F91FF90EF900895CF92DF92EF9273
:101F2000FF920F931F93CF93DF931F921F92CDB712
:101F3000DEB78C01862F49835A830E94C50C4981E4
:101F4000C42E5A81D52E76018EEFF81AF6018191B2
:101F50006F010E94C50CCE14DF04C1F78FEF0E9401
:101F6000C50C8FEF0E94C50C0E94CC0CF801828733
:101F7000982F9F71953039F081E18583C8010E94C7
:101F8000E00C80E001C081E00F900F90DF91CF91D5
:101F90001F910F91FF90EF90DF90CF9008950F93D6
:101FA0001F93CF93DF93EC01890141155105610522
:101FB000710511F482E132C08B85833039F089E0FC
:101FC000440F551F661F771F8A95D1F79A01AB0101
:101FD00068E1CE010E94940D882311F084E01EC0B8
:101FE000A8016EEFCE010E948D0F8823C1F068E535
:101FF00072E0CE010E94790D811102C085E10EC010
:1020000020E030E0A9016DE0CE010E94940D811125
:1020100004C00E94CC0C882339F084E18D83CE016A
:102020000E94E00C80E004C0CE010E94E00C81E040
:10203000DF91CF911F910F910895EBE2F4E080E5DD
:10204000808311820895CF93DF93EC019C012A5F76
:102050003F4F41E050E060E070E08B8D9C8D0E942E
:1020600073198823A1F08F89988DA98DBA8D892B3A
:102070008A2B8B2B59F48E819F81A885B9858F8BF4
:10208000988FA98FBA8F8C8180688C8381E0DF91D3
:10209000CF910895CF92DF92EF92FF921F93CF934B
:1020A000DF93EC010E942310811102C080E04AC03E
:1020B000EB8DFC8DCE80DF80E884F98482E0C81A45
:1020C000D108E108F108058404C0CC0CDD1CEE1C2D
:1020D000FF1C0A94D2F786859785A089B189C80E1E
:1020E000D91EEA1EFB1E148181E0C81AD108E1083E
:1020F000F108112361F0C701B601610F711D811D47
:10210000911D0E94C217882389F21150F2CFEB8DE6
:10211000FC8D80E092E0A0E0B0E0058404C0880F70
:10212000991FAA1FBB1F0A94D2F74B895C896D893E
:102130007E89840F951FA61FB71F8B8B9C8BAD8B41
:10214000BE8B81E0DF91CF911F91FF90EF90DF90E8
:10215000CF900895CF93DF93EC01462F6E857F8556
:10216000888999890E948717882341F08A8920E20B
:10217000829FC00111248A5C9B4F02C080E090E0E6
:10218000DF91CF910895FB019B01255F3F4F40E216
:102190004193E217F307E1F7DC0190E027E08D912E
:1021A000882319F18E3219F0ECE0F2E008C02A30F1
:1021B00009F198E02AE0F3CF31963817D9F034913D
:1021C0003111FACF2917B0F03FED380F3E3590F4BA
:1021D00031E0390FFB01E90FF11D9FE9980F9A31AA
:1021E00008F480528083932FDACF81E0FB01908145
:1021F000903209F480E008950F931F93CF93DF93FB
:10220000FC012581222311F080E042C08B01EC010A
:10221000FB0187898031B1F482E08D831F8A188E9B
:10222000198E1A8E808D918DA0E0B0E025E0880F88
:10223000991FAA1FBB1F2A95D1F78B8B9C8BAD8B47
:10224000BE8B15C0803201F783E08D83FB01428D88
:10225000538D648D758D4F8B588F698F7A8F9E014A
:102260002D5E3F4FC8010E946A18882369F21C8FB7
:102270000B8F81E08C831E821F82188619861A8636
:102280001B861C861D861E861F86188A198A1A8A36
:10229000DF91CF911F910F9108952F923F924F920E
:1022A0005F926F927F928F929F92AF92BF92CF92E6
:1022B000DF92EF92FF920F931F93CF93DF93EC0186
:1022C0005B014A018D81811103C08FEF9FEFD7C061
:1022D0008C8180FFFACF4B885C886D887E884A8528
:1022E0005B856C857D85C401A0E0B0E0930182012F
:1022F000041B150B260B370B081719072A073B077A
:1023000018F44201841A950A24011E0126E0220EC7
:10231000311C4114510409F47EC04A855B856C85EB
:102320007D856A0181E0D822ED818A019B0189E0E7
:1023300036952795179507958A95D1F78B8D9C8DA6
:10234000E23061F4FC01828D938DA48DB58DBC01CA
:10235000CD01600F711F821F931F3FC0FC0174806D
:102360007A947022C114D104C9F4711017C0452B9E
:10237000462B472B49F48F89988DA98DBA8D8E8372
:102380009F83A887B9870AC04E815F816885798558
:1023900091010E94E617882309F497CFEB8DFC8DFD
:1023A0008E819F81A885B9850297A109B10905840D
:1023B00004C0880F991FAA1FBB1F0A94D2F7468535
:1023C000578560897189840F951FA61FB71FBC01AF
:1023D000CD01670D711D811D911D20E032E02C198A
:1023E0003D0932012415350508F439012C8126FDFB
:1023F00004C06114F2E07F0679F5009106021091A5
:1024000007022091080230910902601771078207C4
:10241000930719F421C0C40132C0750183019601EC
:10242000AB01BC0180913404909135040E946D0F82
:10243000882309F44ACFA60CB71C8A859B85AC85F6
:10244000BD85860D971DA11DB11D8A879B87AC8711
:10245000BD87461857085DCF40E00E948717882344
:1024600009F433CFF601EA5CFB4FD501CF01860DAD
:10247000971DE817F907F9F221912D93FACFDF9113
:10248000CF911F910F91FF90EF90DF90CF90BF9071
:10249000AF909F908F907F906F905F904F903F9004
:1024A0002F900895FF920F931F93CF93DF931F9266
:1024B000CDB7DEB7FC012581223018F480E090E032
:1024C00033C08C01FC01428553856485758585E0A8
:1024D00076956795579547958A95D1F7F42FFF70B4
:1024E000FF2E41E050E0BE016F5F7F4FC8010E94A8
:1024F0004D11019719F4898190E002C08FEF9FEF91
:102500000196E1F2F80182859385A485B5854F9601
:10251000A11DB11D82879387A487B587F0E2FF9E36
:10252000C00111248A5C9B4F0F90DF91CF911F91C6
:102530000F91FF9008958F929F92AF92BF92CF928A
:10254000DF92EF92FF920F931F93CF93DF93EC01F3
:102550008D81811102C080E077C00B891C892D8993
:102560003E890417150726073707A8F36A017B0180
:10257000823029F4CA86DB86EC86FD860DC0C11444
:10258000D104E104F10451F41E821F8218861986D9
:102590001A861B861C861D8681E056C08A849B8411
:1025A000AC84BD84EB8DFC8D258530E0275F3F4FEB
:1025B000B501A4014150510961097109022E04C0FD
:1025C00076956795579547950A94D2F7D701C60136
:1025D0000197A109B10904C0B695A795979587956C
:1025E0002A95D2F784179507A607B70720F0892800
:1025F0008A288B2849F44F89588D698D7A8D4E83AE
:102600005F836887798704C0841B950BA60BB70B83
:102610004C015D018E010A5F1F4F81149104A104DA
:10262000B10409F4A7CF4E815F816885798598014F
:102630008B8D9C8D0E94E61791E0891A9108A10864
:10264000B1088111EACF87CFDF91CF911F910F9110
:10265000FF90EF90DF90CF90BF90AF909F908F90C2
:1026600008950F931F93CF93DF93EC018D818823FF
:10267000C9F18C8187FF30C061E0CE010E94AA10B1
:102680008C01892B79F18D81823048F48B899C896A
:10269000AD89BE89F801848F958FA68FB78F8F89FA
:1026A000988DA98DBA8DF801938F828FB58BA48BED
:1026B000E0912D04F0912E04309759F0B8016A5E34
:1026C0007F4FC80148961995F801808D918D938BA5
:1026D000828B8C818F778C83DF91CF911F910F91AB
:1026E0000C944C1780E0DF91CF911F910F910895CA
:1026F000CF93DF93EC010E943113882311F01D82E8
:1027000081E0DF91CF9108954F925F926F927F9217
:102710008F929F92AF92BF92EF92FF920F931F936F
:10272000CF93DF9300D01F92CDB7DEB7FC01858138
:102730008130E9F4848181FF1AC083899489A58955
:10274000B68984179507A607B70788F0892B8A2BC7
:102750008B2B09F479C04A015B017F0142845384C9
:1027600064847584CF010E949B12811102C080E0B5
:102770006CC0F701838D948D81149104A104B10480
:1027800071F44789508D618D728D0E94881A88235B
:1027900071F3F701178A108E118E128E3AC0F7016D
:1027A00046815781608571859E012F5F3F4F0E9452
:1027B000E6178823E1F249815A816B817C81F70118
:1027C000838D948DFC012789203129F008EF1FEFBC
:1027D0002FEF3FE004C008EF1FEF20E030E040178C
:1027E000510762077307A8F40E94881A882309F426
:1027F000BECFF70146815781608571850FEF1FEFCE
:102800002FEF3FE0838D948D0E94D318882309F425
:10281000AECFF701838A948AA58AB68A84818068BC
:102820008483C7010E943113882309F4A0CFB50126
:10283000A401481459046A047B0410F4B301A201F2
:10284000C7010E949B1201C081E00F900F900F9072
:102850000F90DF91CF911F910F91FF90EF90BF905C
:10286000AF909F908F907F906F905F904F90089562
:102870001F93CF93DF93EC0180E2689FF001112456
:102880009F012A5C3B4FD9011B969C91917129F0C5
:10289000842F827411F080E05BC0142F6A8B8091CA
:1028A000060290910702A0910802B09109028E875A
:1028B0009F87A88BB98BEA5CFB4F4489558960E000
:1028C00070E0BA01552744274F8B588F698F7A8F54
:1028D000828D938DA0E0B0E0482B592B6A2B7B2B87
:1028E0004F8B588F698F7A8FD9011B968C91887185
:1028F00051F4848D958DA68DB78D8B8B9C8BAD8B74
:10290000BE8B81E00DC0803131F69E012D5E3F4FC0
:102910008B8D9C8D0E946A18882309F4BCCF84E0BB
:102920008D83812F8F708C831E821F82188619865B
:102930001A861B861C861D8616FF09C040E050E0E3
:10294000BA01CE01DF91CF911F910C94841381E0E5
:10295000DF91CF911F910895CF92DF92EF92FF9276
:102960000F931F93CF93DF93CDB7DEB72C970FB69E
:10297000F894DEBF0FBECDBFFC0135813111C2C05E
:10298000D22E8B017C01BE016F5F7F4FCA010E9476
:10299000C310882309F4B6C0F801838D948DF70124
:1029A000948F838FF8011682178210861186128603
:1029B00013861486158630E0F80182859385A485F8
:1029C000B585438954896589768984179507A60753
:1029D000B70708F041C025E0B695A795979587956C
:1029E0002A95D1F7F82FFF70CF2EC8013C870E949F
:1029F00052123C85009709F485C0FC0120812223F6
:102A000009F484C0253E99F04BE050E0BC01CE01B2
:102A100001963C870E94A3243C85892B69F68D2D65
:102A20008073803309F46EC04D2D6C2D67C0311159
:102A30006BC0F701C28A4091060250910702609173
:102A400008027091090246875787608B718BFC01E1
:102A5000808131E08111B0CF8D2D8271823109F0FA
:102A600051C0332341F061E0C7010E94AA108C01DC
:102A7000892B79F447C0F8018581823009F442C07E
:102A8000C8010E944A108823E9F1F701128A06E37F
:102A900014E080E2F80111928A95E9F78BE0FE01DB
:102AA0003196D80101900D928A95E1F7E0912D04BD
:102AB000F0912E04309739F0B801625F7F4FC80162
:102AC0004096199509C081E298E2F801918B808BBC
:102AD00080E098E097878687F80180899189938BB9
:102AE000828B918F808F86859785978B868B0E94AE
:102AF0004C17882339F04D2DF7016289C7010E94D8
:102B0000381409C080E007C031E056CF332309F400
:102B100090CF31E0A1CF2C960FB6F894DEBF0FBE58
:102B2000CDBFDF91CF911F910F91FF90EF90DF907C
:102B3000CF9008952F923F924F925F926F927F9223
:102B40008F929F92AF92BF92CF92DF92EF92FF92BD
:102B50000F931F93CF93DF9300D01F92CDB7DEB7B3
:102B60008C016B013A01DC0115968C91159781302F
:102B7000C9F414968C9181FF15C082FF1DC0F80125
:102B8000438954896589768982859385A485B5852D
:102B900084179507A607B70779F0C8010E949B1212
:102BA00081110AC081E090E0D80113969C938E9326
:102BB000129780E090E048C1430184C0D8015B9641
:102BC0008D919C915C97FC0154802FEF250D1A018B
:102BD0002B0139E056944794379427943A95D1F7CE
:102BE000522E52207A01F1E0FF22552009F476C0DE
:102BF00080E092E08E199F0954018815990508F428
:102C00005C01D8015B962D913C915C9716968D9155
:102C10009D910D90BC91A02D0297A109B109F901D8
:102C2000058404C0880F991FAA1FBB1F0A94D2F7FE
:102C30004685578560897189840F951FA61FB71F28
:102C40009C01AD01250D311D411D511D19012A01A8
:102C5000A11432E0B30609F088C080910602909179
:102C60000702A0910802B091090282159305A405FC
:102C7000B50559F48FEF9FEFDC0180930602909326
:102C80000702A0930802B09309029601B201A101C4
:102C900080913404909135040E94CF0F882309F469
:102CA00081CF9EEFD91A8A189B08F80182859385F7
:102CB000A485B5858A0D9B1DA11DB11D82879387B3
:102CC000A487B587D8011A964D915D916D917C913D
:102CD0001D978114910409F071CF87C0E114F104AC
:102CE00009F086CF16964D915D916D917C91199763
:102CF000411551056105710559F457968D919D91C6
:102D00000D90BC91A02D0097A105B10541F521C002
:102D10009E012F5F3F4F0E94E617882309F44ACF98
:102D200089819A81AB81BC81F801238D348DF901B1
:102D30002789203129F048EF5FEF6FEF7FE004C073
:102D400048EF5FEF60E070E084179507A607B707CC
:102D500030F0C8010E94231081114ACF23CFF8011F
:102D600086839783A087B18743CFE114F10429F5C7
:102D7000D8011A964D915D916D917C911D97539656
:102D80008D919D910D90BC91A02D481759076A0710
:102D90007B0798F00E944C17882309F403CF2092F8
:102DA0000602309207024092080250920902809176
:102DB000330481608093330408C041E0C201B10153
:102DC0000E948717882309F4EDCED601F701EA5C4B
:102DD000FB4FCF018A0D9B1DE817F90719F02D91C4
:102DE0002193FACFCA0CDB1C5ECF5396CD90DD90B9
:102DF000ED90FC90569714968C91C416D506E60675
:102E0000F70640F4F801438B548B658B768B806812
:102E100084830DC020912D0430912E04232B39F092
:102E20006114710421F08068D80114968C93F80124
:102E3000848183FD02C0C30107C0C8010E94311311
:102E4000882309F4AFCEF7CF0F900F900F900F901B
:102E5000DF91CF911F910F91FF90EF90DF90CF9076
:102E6000BF90AF909F908F907F906F905F904F90AA
:102E70003F902F900895CF93DF931F92CDB7DEB789
:102E8000698341E050E0BE016F5F7F4F0E949A1559
:102E90000F90DF91CF910895809133048823A9F199
:102EA0004091060250910702609108027091090258
:102EB00026E334E080913404909135040E94CF0FD2
:102EC000811102C080E0089540912F045091300498
:102ED000609131047091320441155105610571050D
:102EE00091F026E334E080913404909135040E94FF
:102EF000CF0F882339F310922F04109230041092D0
:102F00003104109232041092330481E00895CF927C
:102F1000DF92EF92FF92CF936B017C01C42F8091DF
:102F2000060290910702A0910802B09109028C1547
:102F30009D05AE05BF05D1F00E944C17811102C05E
:102F400080E01AC026E334E0B701A6018091340482
:102F5000909135040E947D0F882391F3C092060260
:102F6000D0920702E0920802F092090280913304A5
:102F7000C82BC093330481E0CF91FF90EF90DF9096
:102F8000CF900895CF92DF92EF92FF926B017C0178
:102F90000E944C178823A9F0E6E3F4E0119286E042
:102FA000E633F807D9F7C0920602D0920702E09202
:102FB0000802F09209028091330481608093330407
:102FC00081E0FF90EF90DF90CF9008958F929F92D5
:102FD000AF92BF92CF92DF92EF92FF920F931F9327
:102FE000CF93DF93FC0181859285A385B4850196FB
:102FF000A11DB11D84179507A607B70710F480E03F
:103000005CC083899489A589B689C789C03129F4B0
:10301000852E962EA72EBB2409C04A015B01C7E06E
:10302000B694A79497948794CA95D1F7E9016A0159
:103030007B018F01BC01CD01680D791D8A1D9B1D8F
:103040008090060290900702A0900802B0900902BA
:10305000681579058A059B0599F4F80187898031FF
:10306000A9F4B701A601552766277727440F551FF6
:10307000FA01EA5CFB4F80819181A0E0B0E018C0CA
:1030800040E00E9487178111E8CFB9CFB701A601B0
:103090004F77552766277727440F551F440F551F35
:1030A000FA01EA5CFB4F80819181A281B381BF70FC
:1030B00088839983AA83BB8381E0DF91CF911F919D
:1030C0000F91FF90EF90DF90CF90BF90AF909F90C7
:1030D0008F9008954F925F926F927F92AF92BF92BE
:1030E000CF92DF92EF92FF920F931F93CF93DF93D4
:1030F00000D01F92CDB7DEB78C0149835A836B8312
:103100007C835901C12CD12C7601412C82E0582EB0
:10311000612C712C49815A816B817C819E012F5FCA
:103120003F4FC8010E94E617882351F1D301C20125
:10313000F801058404C0880F991FAA1FBB1F0A94B9
:10314000D2F7C80ED91EEA1EFB1E49815A816B8137
:103150007C818789803129F088EF9FEFAFEFBFE056
:1031600004C088EF9FEFA0E0B0E0481759076A0756
:103170007B0780F2F501C082D182E282F38281E096
:103180000F900F900F900F90DF91CF911F910F91A3
:10319000FF90EF90DF90CF90BF90AF907F906F90B7
:1031A0005F904F9008954F925F926F927F928F92AF
:1031B0009F92AF92BF92CF92DF92EF92FF920F93C6
:1031C0001F93CF93DF93EC016A017B012801390142
:1031D000423051056105710510F480E073C08985A6
:1031E0009A85AB85BC850196A11DB11D84179507F5
:1031F000A607B70790F38B889C88AD88BE888F8917
:10320000803129F4BB27AF2D9E2D8D2D09C0DB0108
:10321000CA0147E0B695A795979587954A95D1F746
:10322000880E991EAA1EBB1E80910602909107026D
:10323000A0910802B091090288169906AA06BB0659
:1032400079F48F898031A1F4DD24EE24FF24C601B6
:10325000880F991FFC01EA5CFB4F5182408219C024
:1032600040E0C501B4010E9487178111EACFB5CFB4
:10327000E894C7F8DD24EE24FF24C601880F991FC7
:10328000880F991FFC01EA5CFB4F408251826282E9
:103290007382809133048160809333048A89823001
:1032A00080F08D819E81AF81B885880E991EAA1EFF
:1032B000BB1E80922F0490923004A0923104B092F1
:1032C000320481E0DF91CF911F910F91FF90EF9039
:1032D000DF90CF90BF90AF909F908F907F906F9036
:1032E0005F904F9008952F923F924F925F926F920E
:1032F0007F929F92AF92BF92CF92DF92EF92FF9216
:103300000F931F93CF93DF93CDB7DEB760970FB6C0
:10331000F894DEBF0FBECDBF5C0149875A876B872B
:103320007C871901D901CD90DD90ED90FC90C114FE
:10333000D104E104F10431F0BFEFCB1ADB0AEB0A50
:10334000FB0A10C0FC01C080D180E280F380992488
:10335000939409851A852B853C850130110521053B
:10336000310509F0912CF50181859285A385B485FD
:103370008C019D010F5F1F4F2F4F3F4F0D871E8701
:103380002F87388B260137011D821E821F821886E7
:10339000F50181859285A385B4850D811E812F81DC
:1033A0003885081719072A073B0708F056C02D85EE
:1033B0003E854F855889241535054605570550F437
:1033C00082E0482E512C612C712C92E0C92ED12C18
:1033D000E12CF12C9E012F5F3F4FB301A201C501EB
:1033E0000E94E6178823C9F149815A816B817C814B
:1033F000D301C2010196A11DB11D452B462B472BC0
:1034000019F06C017D010FC0AC01BD014C195D09C3
:103410006E097F0909851A852B853C854017510760
:103420006207730779F02D813E814F8158852F5FA8
:103430003F4F4F4F5F4F2D833E834F8358872C0163
:103440003D01A6CF0FEF1FEF2FEF3FE0B301A20129
:10345000C5010E94D318811118C080E041C0D3017A
:10346000C2010197A109B1098D839E83AF83B887FB
:1034700093018201AC01BD01C5010E94D3188823CC
:1034800061F34D805E806F807884C414D504E604B7
:10349000F70428F3D1014D915D916D917C91411517
:1034A00051056105710599F4F101C082D182E28272
:1034B000F3829920A1F0FFEFCF1ADF0AEF0AFF0A8B
:1034C000D501CD92DD92ED92FC92139708C0970141
:1034D0008601C5010E94D3188111E6CFBECF81E0DD
:1034E00060960FB6F894DEBF0FBECDBFDF91CF91CF
:1034F0001F910F91FF90EF90DF90CF90BF90AF9012
:103500009F907F906F905F904F903F902F90089585
:10351000AF92BF92CF92DF92EF92FF920F931F93E1
:10352000CF93DF9300D01F92CDB7DEB75C016A0165
:103530007B0182E090E0A0E0B0E0F5018083918320
:10354000A283B3839E012F5F3F4FB701A601C50140
:103550000E94E617882311F100E010E09801B701FE
:10356000A601C5010E94D3188823C1F0C980DA8062
:10357000EB80FC80F5018789803129F088EF9FEF8F
:10358000AFEFBFE004C088EF9FEFA0E0B0E0C81647
:10359000D906EA06FB06B0F281E001C080E00F9098
:1035A0000F900F900F90DF91CF911F910F91FF908F
:1035B000EF90DF90CF90BF90AF9008958F929F9241
:1035C000AF92BF92CF92DF92EF92FF920F931F9331
:1035D000CF93DF93EC01142F709335046093340480
:1035E000442369F1453010F080E0F2C040E060E033
:1035F00070E0CB010E9487178823B1F320E1129F6E
:10360000A00111244A5D5B4FFA01E254FE4F808114
:103610008F7751F73C9680819181A281B381843666
:103620009105A105B10500F33497C080D180E280F7
:10363000F380C114D104E104F10421F4D5CFC12CED
:10364000D12C760140E0C701B6010E94871788237C
:1036500059F280914104909142048115924021F6E3
:1036600090914604992309F4BFCF209144043091EE
:103670004504232B09F4B8CF80914304882309F42F
:10368000B3CF9A8B8C831D8690E061E070E02D852E
:10369000E22FAB01022E02C0440F551F0A94E2F73D
:1036A0008417950731F031E0320F3D87283078F3E9
:1036B0009BCF20914C0430914D042115310519F018
:1036C00040E050E008C020915A0430915B044091E2
:1036D0005C0450915D042D833E834F835887809115
:1036E00044049091450446015701880E991EA11C7F
:1036F000B11C8B8A9C8AAD8ABE8A009147041091C6
:103700004804198F088FA0914604B0E00E946A22F5
:10371000860E971EA81EB91E8A8E9B8EAC8EBD8EFD
:1037200085E0000F111F8A95E1F701501E4F012F10
:1037300011270695800E911EA11CB11C8E869F86B6
:10374000A88AB98A2091490430914A04211531058B
:1037500021F0A90160E070E008C04091560450914A
:1037600057046091580470915904D701C601881913
:103770009909AA09BB09840F951FA61FB71F04C08A
:10378000B695A79597958795EA95D2F789879A87F1
:10379000AB87BC87853F2FE09207A105B10510F4E8
:1037A0008CE014C0853F9F4FA105B10510F480E166
:1037B0000DC08091620490916304A0916404B09163
:1037C00065048A8F9B8FAC8FBD8F80E28F8B81E0E9
:1037D000DF91CF911F910F91FF90EF90DF90CF90ED
:1037E000BF90AF909F908F9008951F920F920FB649
:1037F0000F9211242F933F938F939F93AF93BF9377
:103800008091370690913806A0913906B0913A061A
:103810003091360623E0230F2D3720F40196A11DA9
:10382000B11D05C026E8230F0296A11DB11D2093EE
:1038300036068093370690933806A0933906B093E6
:103840003A0680913B0690913C06A0913D06B091CE
:103850003E060196A11DB11D80933B0690933C0648
:10386000A0933D06B0933E06BF91AF919F918F917B
:103870003F912F910F900FBE0F901F9018952FB76B
:10388000F8946091370670913806809139069091CE
:103890003A062FBF08953FB7F89480913B06909168
:1038A0003C06A0913D06B0913E0626B5A89B05C0FA
:1038B0002F3F19F00196A11DB11D3FBFBA2FA92FAF
:1038C000982F8827820F911DA11DB11DBC01CD012C
:1038D00042E0660F771F881F991F4A95D1F7089518
:1038E0008F929F92AF92BF92CF92DF92EF92FF9210
:1038F0006B017C010E944B1C4B015C01C114D10483
:10390000E104F10401F10E942B220E944B1CDC0116
:10391000CB0188199909AA09BB09883E9340A105E2
:10392000B10560F321E0C21AD108E108F10888EE80
:10393000880E83E0981EA11CB11CC114D104E104BF
:10394000F10419F7DBCFFF90EF90DF90CF90BF909D
:10395000AF909F908F900895789484B5826084BDD5
:1039600084B5816084BD85B5826085BD85B5816083
:1039700085BDEEE6F0E0808181608083E1E8F0E0E3
:103980001082808182608083808181608083E0E812
:10399000F0E0808181608083E1EBF0E080818460F1
:1039A0008083E0EBF0E0808181608083E1E9F0E0FA
:1039B000808182608083808181608083E0E9F0E0A3
:1039C000808181608083E1EAF0E080818260808391
:1039D000808181608083E0EAF0E080818160808383
:1039E000E1E2F1E080818260808380818160808378
:1039F000E0E2F1E0808181608083EAE7F0E08081AD
:103A00008460808380818260808380818160808304
:103A10008081806880831092C100089590E0FC014D
:103A20003197E231F10508F04EC08827E656FF4F86
:103A30008F4F0C946222809180008F7703C0809119
:103A400080008F7D80938000089580918000877F23
:103A5000F9CF84B58F7702C084B58F7D84BD08957A
:103A60008091B0008F7703C08091B0008F7D8093EC
:103A7000B0000895809190008F7707C080919000EA
:103A80008F7D03C080919000877F80939000089580
:103A90008091A0008F7707C08091A0008F7D03C028
:103AA0008091A000877F8093A000089580912001DD
:103AB0008F7707C0809120018F7D03C08091200106
:103AC000877F809320010895CF93DF9390E0FC01DE
:103AD000E65CFD4F2491FC01E85AFD4F8491882358
:103AE00061F190E0880F991FFC01EA57FD4FC591E5
:103AF000D491FC01EA58FD4FA591B491611109C020
:103B00009FB7F8948881209582238883EC912E2397
:103B10000BC0623061F49FB7F8943881822F809592
:103B200083238883EC912E2B2C939FBF06C08FB7E5
:103B3000F894E8812E2B28838FBFDF91CF910895D1
:103B40001F93CF93DF93282F30E0F901E45EFD4F00
:103B50008491F901E65CFD4FD491F901E85AFD4FDB
:103B6000C491CC23C9F0162F81110E940E1DEC2F99
:103B7000F0E0EE0FFF1FEA58FD4FA591B4918FB70B
:103B8000F894111105C09C91ED2FE095E92302C036
:103B9000EC91ED2BEC938FBFDF91CF911F910895A6
:103BA000FC01918D228D892F90E0805C9F4F821BBC
:103BB00091098F7399270895FC01918D828D981733
:103BC00031F0828DE80FF11D858D90E008958FEF23
:103BD0009FEF0895FC01918D828D981761F0828D81
:103BE000DF01A80FB11D5D968C91928D9F5F9F7331
:103BF000928F90E008958FEF9FEF08958CE69FE1FC
:103C0000892B41F080E090E0892B21F00E946C1F0D
:103C100081110DC080E090E0892B71F080E090E090
:103C2000892B51F00E940000811104C008950E9468
:103C30000000F0CF0C9400000895FC01848DDF019A
:103C4000A80FB11DA35ABF4F2C91848D90E001960F
:103C50008F739927848FA689B7892C93A089B189FE
:103C60008C9180648C93938D848D981306C0028808
:103C7000F389E02D80818F7D80830895CF93DF933A
:103C8000EC01888D8823C9F0EA89FB89808185FD54
:103C900005C0A889B9898C9186FD0FC00FB607FCB5
:103CA000F5CF808185FFF2CFA889B9898C9185FFF6
:103CB000EDCFCE010E941D1EE7CFDF91CF91089579
:103CC000EF92FF920F931F93CF93DF93EC0181E06C
:103CD000888F9B8D8C8D981305C0E889F989808128
:103CE00085FD24C0F62E0B8D10E00F5F1F4F0F7364
:103CF0001127E02E8C8DE8120CC00FB607FCFACF0E
:103D0000E889F989808185FFF5CFCE010E941D1ECB
:103D1000F1CF8B8DFE01E80FF11DE35AFF4FF082CA
:103D20000B8FEA89FB898081806207C0EE89FF8959
:103D30006083E889F98980818064808381E090E0F4
:103D4000DF91CF911F910F91FF90EF900895CF9247
:103D5000DF92EF92FF921F93CF93DF93EC016A0102
:103D60007B01122FE889F98982E080834115514E49
:103D700061057105B1F060E079E08DE390E0A701A5
:103D800096010E944022DA01C9010197A109B109F7
:103D9000B695A79597958795AC01411580E1580791
:103DA000A8F0E889F989108260E874E88EE190E073
:103DB000A70196010E944022BA01A9014150510970
:103DC000610971097695679557954795EC85FD854D
:103DD0005083EE85FF854083188EEC89FD89108322
:103DE000EA89FB89808180618083EA89FB898081FF
:103DF00088608083EA89FB89808180688083EA8982
:103E0000FB8980818F7D8083DF91CF911F91FF900F
:103E1000EF90DF90CF9008951F920F920FB60F9200
:103E200011240BB60F922F938F939F93EF93FF93D1
:103E3000E0914F06F09150068081E0915506F09197
:103E4000560682FD12C09081809158068F5F8F7355
:103E500020915906821751F0E0915806F0E0E15C9C
:103E6000F94F958F8093580601C08081FF91EF91A3
:103E70009F918F912F910F900BBE0F900FBE0F90BF
:103E80001F9018951F920F920FB60F9211240BB628
:103E90000F922F933F934F935F936F937F938F93E3
:103EA0009F93AF93BF93EF93FF938FE396E00E94AE
:103EB0001D1EFF91EF91BF91AF919F918F917F91C7
:103EC0006F915F914F913F912F910F900BBE0F908B
:103ED0000FBE0F901F9018958FE396E00E94D01DA3
:103EE00021E0892B09F420E0822F0895EFE3F6E02A
:103EF0001382128288EE93E0A0E0B0E08483958381
:103F0000A683B78383E592E09183808385EC90E07C
:103F10009587848784EC90E09787868780EC90E093
:103F2000918B808B81EC90E0938B828B82EC90E084
:103F3000958B848B86EC90E0978B868B118E128EFE
:103F4000138E148E0895CF92DF92EF92FF920F930B
:103F50001F93CF93DF936C017A018B01C0E0D0E017
:103F6000CE15DF0589F0D8016D918D01D601ED9157
:103F7000FC910190F081E02DC6011995892B11F477
:103F80007E0102C02196ECCFC701DF91CF911F9136
:103F90000F91FF90EF90DF90CF900895611571051C
:103FA00079F0FB0101900020E9F73197AF01461B42
:103FB000570BDC01ED91FC910280F381E02D199407
:103FC00080E090E00895DC01ED91FC91DB01149616
:103FD0004D915C9115976D917C910280F381E02D5C
:103FE00019946FE572E00C94CE1F0F931F93CF933B
:103FF000DF93EC010E94E31F8C01CE010E94F11FB0
:10400000800F911FDF91CF911F910F910895089517
:10401000FC01808191810C941923CF93DF93EC01F3
:1040200088819981009711F00E94192319821882C2
:104030001D821C821B821A82DF91CF9108950F93FB
:104040001F93CF93DF93EC018B016F5F7F4F8881CC
:1040500099810E94B123009731F0998388831B8353
:104060000A8381E001C080E0DF91CF911F910F9121
:104070000895CF93DF93EC0188819981892B29F0F2
:104080008A819B818617970760F4CE010E941F20CA
:10409000882341F08C819D81892B19F4E881F98175
:1040A000108281E0DF91CF910895EF92FF920F93FC
:1040B0001F93CF93DF93EC017B018A01BA010E9429
:1040C0003920811104C0CE010E940D2007C01D833C
:1040D0000C83B701888199810E94C424CE01DF91AD
:1040E000CF911F910F91FF90EF900895FC011182E5
:1040F000108213821282158214826115710551F0AB
:10410000FB0101900020E9F73197AF01461B570BE7
:104110000C94552008950F931F93CF93DF938C0138
:10412000EB01FC01808191810097D1F06881798158
:104130006115710599F027E030E2232B79F0428177
:1041400053812C813D814217530740F00E94C424C3
:104150008C819D81F8019583848313C00E9419236B
:1041600088819981F801918380838A819B819383DF
:1041700082838C819D8195838483198218821B821E
:104180001A821D821C82DF91CF911F910F91089599
:10419000CF93DF93EC01FB018617970761F06081F5
:1041A00071816115710529F0448155810E94552066
:1041B00002C00E940D20CE01DF91CF910895FC0135
:1041C0001182108213821282158214820C94C820EC
:1041D000CF93DF93EC018617970711F00E948B2095
:1041E000CE01DF91CF910895CF93DF93EC0161155C
:1041F000710559F0FB0101900020E9F73197AF01FB
:10420000461B570B0E94552002C00E940D20CE0174
:10421000DF91CF9108950F931F93CF93DF93CDB785
:10422000DEB729970FB6F894DEBF0FBECDBF8C0165
:10423000862FF80111821082138212821582148255
:1042400050E0BE016F5F7F4F90E00E94F424BE01FA
:104250006F5F7F4FC8010E94F42029960FB6F89433
:10426000DEBF0FBECDBFDF91CF911F910F9108959B
:10427000EF92FF920F931F93CF93DF93FC01248162
:1042800035816115710511F480E019C041155105A2
:10429000A9F07B01EC018A01020F131FB8010E94F3
:1042A0003920882389F3288139818C819D81B70148
:1042B000820F931F0E94C4241D830C8381E0DF9131
:1042C000CF911F910F91FF90EF900895CF93DF93BF
:1042D0001F921F92CDB7DEB769831A8241E050E08A
:1042E000BE016F5F7F4F0E9438210F900F90DF91CA
:1042F000CF910895CF93DF93EC01FB014481558169
:10430000608171810E943821811103C0CE010E9419
:104310000D20CE01DF91CF910895CF93DF93EC0173
:104320006115710561F0FB0101900020E9F73197FB
:10433000AF01461B570B0E943821811103C0CE01EB
:104340000E940D20CE01DF91CF910895CF93DF938E
:10435000EC010E946621811103C0CE010E940D2054
:10436000CE01DF91CF910895CF93DF93FC0124819B
:1043700035814217530780F4FB01DC01CD91DC91BC
:1043800060817181CE01840F951F0E94DA2400970D
:1043900019F08C1B9D0B02C08FEF9FEFDF91CF9127
:1043A000089540E050E00C94B421BF92CF92DF9288
:1043B000EF92FF920F931F93CF93DF937C016B01DA
:1043C0008A01E9012417350720F4812F8901C42FC0
:1043D000D82F61E672E0C7010E947620D6011496BC
:1043E0008D919C91159708171907D0F48C179D078C
:1043F00008F4EC01D601ED91FC911197EC0FFD1F33
:10440000B08010824D915C91BA01600F711FC7019D
:104410000E94F420D601ED91FC91EC0FFD1FB082BB
:10442000C701DF91CF911F910F91FF90EF90DF9027
:10443000CF90BF90089508950E94AC1C0E941B224B
:104440000E94E802CEEFDDE10E9408052097E1F32B
:104450000E94FE1DF9CF0895AA1BBB1B51E107C0A6
:10446000AA1FBB1FA617B70710F0A61BB70B881F04
:10447000991F5A95A9F780959095BC01CD01089593
:10448000A1E21A2EAA1BBB1BFD010DC0AA1FBB1F58
:10449000EE1FFF1FA217B307E407F50720F0A21BCA
:1044A000B30BE40BF50B661F771F881F991F1A9437
:1044B00069F760957095809590959B01AC01BD0161
:1044C000CF010895EE0FFF1F881F8BBF0790F69155
:1044D000E02D19940E947522A59F900DB49F900D18
:1044E000A49F800D911D11240895A29FB001B39F38
:1044F000C001A39F700D811D1124911DB29F700DED
:10450000811D1124911D0895CF93DF938230910571
:1045100010F482E090E0E091DE06F091DF0620E00A
:1045200030E0C0E0D0E0309711F140815181481770
:104530005907C0F04817590761F482819381209789
:1045400019F09B838A832BC09093DF068093DE064D
:1045500026C02115310519F04217530718F49A01A6
:10456000BE01DF01EF010280F381E02DDCCF2115D8
:10457000310509F1281B390B2430310590F41296CE
:104580008D919C9113976115710521F0FB01938327
:10459000828304C09093DF068093DE06FD0132968D
:1045A00044C0FD01E20FF31F819391932250310922
:1045B0002D933C933AC02091DC063091DD06232BED
:1045C00041F420910202309103023093DD062093E2
:1045D000DC0620910002309101022115310541F4E1
:1045E0002DB73EB74091040250910502241B350BB4
:1045F000E091DC06F091DD06E217F307A0F42E1B34
:104600003F0B2817390778F0AC014E5F5F4F241736
:10461000350748F04E0F5F1F5093DD064093DC06D0
:104620008193919302C0E0E0F0E0CF01DF91CF9160
:1046300008950F931F93CF93DF93009709F48CC0D5
:10464000FC013297138212820091DE061091DF0680
:104650000115110581F420813181820F931F209172
:10466000DC063091DD062817390779F5F093DD0671
:10467000E093DC0671C0D80140E050E0AE17BF0700
:1046800050F412962D913C911397AD0121153105EF
:1046900009F1D901F3CF9D01DA01338322836081CF
:1046A0007181860F971F8217930769F4EC012881A7
:1046B0003981260F371F2E5F3F4F318320838A8138
:1046C0009B8193838283452B29F4F093DF06E0934B
:1046D000DE0642C01396FC93EE931297ED014991CA
:1046E00059919E01240F351FE217F30771F4808161
:1046F0009181840F951F029611969C938E938281CF
:10470000938113969C938E931297E0E0F0E0D8018A
:1047100012968D919C911397009719F0F8018C01D6
:10472000F6CF8D919C9198012E5F3F4F820F931F82
:104730002091DC063091DD062817390769F430979F
:1047400029F41092DF061092DE0602C01382128254
:104750001093DD060093DC06DF91CF911F910F913E
:1047600008956F927F928F929F92AF92BF92CF9255
:10477000DF92EF92FF920F931F93CF93DF93EC01A1
:10478000009789F4CB01DF91CF911F910F91FF909A
:10479000EF90DF90CF90BF90AF909F908F907F90E1
:1047A0006F900C948422FC01E60FF71F9C012250AD
:1047B0003109E217F30708F4ACC0D9010D911C913F
:1047C000119706171707B0F00530110508F49FC0C0
:1047D000C80104978617970708F499C00250110979
:1047E000061B170B019311936D937C93CF010E94CD
:1047F00019238DC05B01A01AB10A4C01800E911ED5
:10480000A091DE06B091DF0640E050E0E12CF12CF3
:10481000109709F44AC0A815B905D1F56D907C90A0
:104820001197630182E0C80ED11CCA14DB0480F129
:10483000A3014A195B096A0182E0C80ED11C1296D5
:10484000BC9012971396AC91B5E0CB16D10440F012
:10485000B282A38351834083D9016D937C930AC0B4
:104860000E5F1F4FC301800F911FF9019183808359
:10487000EB2DFA2FE114F10431F0D7011396FC93DC
:10488000EE93129744C0F093DF06E093DE063FC03C
:104890008D919C9111974817590708F4AC017D013F
:1048A00012960D90BC91A02DB3CF8091DC06909113
:1048B000DD0688159905E1F446175707C8F480917D
:1048C000000290910102009741F48DB79EB740918C
:1048D000040250910502841B950BE817F907C8F4F0
:1048E000F093DD06E093DC06F901718360830FC06D
:1048F000CB010E9484227C01009759F0A801BE01DF
:104900000E94B024CE010E941923C70104C0CE0129
:1049100002C080E090E0DF91CF911F910F91FF9056
:10492000EF90DF90CF90BF90AF909F908F907F904F
:104930006F900895803209F091110C9419258052DE
:104940008F55D8F70895FB01DC0104C08D910190CB
:10495000801921F441505040C8F7881B990B0895E5
:10496000FB01DC0102C001900D9241505040D8F78C
:104970000895FC018191861721F08823D9F79927A2
:1049800008953197CF010895FB01DC0101900D924C
:104990000020E1F70895FB01DC014150504048F050
:1049A00001900D920020C9F701C01D924150504066
:1049B000E0F70895FB0151915523A9F0BF01DC01F7
:1049C0004D9145174111E1F759F4CD0101900020B7
:1049D00049F04D9140154111C9F3FB014111EFCF51
:1049E00081E090E0019708954532510520F442306E
:1049F00010F00C94FF24FB011082CB010895BB271B
:104A0000FB015527AA27880F991FAA1FA41710F08A
:104A1000A41B83955051B9F7A05DAA3308F0A95D96
:104A2000A193009779F7B111B1931192CB010C9436
:104A30001C25992788270895DC01FC01672F7191B7
:104A40007723E1F7329704C07C916D937083629174
:104A5000AE17BF07C8F3089511E0C0E5D1E000E04C
:104A600006C0802FFE010E9462222196011DC135E1
:0C4A7000D10780E00807A9F7F894FFCFF9
:104A7C000000E0068000FFFFFFFF300020005458CC
:104A8C005400205B525353493D005D0064617461D6
:104A9C002E747874000000000056062606FA0502F3
:104AAC0006160625060000000087099D09740AD821
:104ABC0009E209B9092F00000000003B17A31F00F1
:104ACC00000000601EA31FD01DEA1DDC1D3E1E0D44
:104ADC000A006E616E00696E66006F7666002E00CD
:00000001FF
